{
  "address": "0xc1545194Ac11Fdf87dd86D57C1bF5efA535e954E",
  "abi": [
    {
      "inputs": [],
      "stateMutability": "nonpayable",
      "type": "constructor"
    },
    {
      "inputs": [
        {
          "internalType": "address",
          "name": "sender",
          "type": "address"
        },
        {
          "internalType": "uint256",
          "name": "tokenId",
          "type": "uint256"
        },
        {
          "internalType": "address",
          "name": "owner",
          "type": "address"
        }
      ],
      "name": "ERC721IncorrectOwner",
      "type": "error"
    },
    {
      "inputs": [
        {
          "internalType": "address",
          "name": "operator",
          "type": "address"
        },
        {
          "internalType": "uint256",
          "name": "tokenId",
          "type": "uint256"
        }
      ],
      "name": "ERC721InsufficientApproval",
      "type": "error"
    },
    {
      "inputs": [
        {
          "internalType": "address",
          "name": "approver",
          "type": "address"
        }
      ],
      "name": "ERC721InvalidApprover",
      "type": "error"
    },
    {
      "inputs": [
        {
          "internalType": "address",
          "name": "operator",
          "type": "address"
        }
      ],
      "name": "ERC721InvalidOperator",
      "type": "error"
    },
    {
      "inputs": [
        {
          "internalType": "address",
          "name": "owner",
          "type": "address"
        }
      ],
      "name": "ERC721InvalidOwner",
      "type": "error"
    },
    {
      "inputs": [
        {
          "internalType": "address",
          "name": "receiver",
          "type": "address"
        }
      ],
      "name": "ERC721InvalidReceiver",
      "type": "error"
    },
    {
      "inputs": [
        {
          "internalType": "address",
          "name": "sender",
          "type": "address"
        }
      ],
      "name": "ERC721InvalidSender",
      "type": "error"
    },
    {
      "inputs": [
        {
          "internalType": "uint256",
          "name": "tokenId",
          "type": "uint256"
        }
      ],
      "name": "ERC721NonexistentToken",
      "type": "error"
    },
    {
      "inputs": [
        {
          "internalType": "address",
          "name": "owner",
          "type": "address"
        }
      ],
      "name": "OwnableInvalidOwner",
      "type": "error"
    },
    {
      "inputs": [
        {
          "internalType": "address",
          "name": "account",
          "type": "address"
        }
      ],
      "name": "OwnableUnauthorizedAccount",
      "type": "error"
    },
    {
      "inputs": [],
      "name": "ReentrancyGuardReentrantCall",
      "type": "error"
    },
    {
      "anonymous": false,
      "inputs": [
        {
          "indexed": true,
          "internalType": "address",
          "name": "owner",
          "type": "address"
        },
        {
          "indexed": true,
          "internalType": "address",
          "name": "approved",
          "type": "address"
        },
        {
          "indexed": true,
          "internalType": "uint256",
          "name": "tokenId",
          "type": "uint256"
        }
      ],
      "name": "Approval",
      "type": "event"
    },
    {
      "anonymous": false,
      "inputs": [
        {
          "indexed": true,
          "internalType": "address",
          "name": "owner",
          "type": "address"
        },
        {
          "indexed": true,
          "internalType": "address",
          "name": "operator",
          "type": "address"
        },
        {
          "indexed": false,
          "internalType": "bool",
          "name": "approved",
          "type": "bool"
        }
      ],
      "name": "ApprovalForAll",
      "type": "event"
    },
    {
      "anonymous": false,
      "inputs": [
        {
          "indexed": true,
          "internalType": "address",
          "name": "to",
          "type": "address"
        },
        {
          "indexed": false,
          "internalType": "uint256",
          "name": "amount",
          "type": "uint256"
        },
        {
          "indexed": false,
          "internalType": "string",
          "name": "purpose",
          "type": "string"
        }
      ],
      "name": "FundsWithdrawn",
      "type": "event"
    },
    {
      "anonymous": false,
      "inputs": [
        {
          "indexed": true,
          "internalType": "address",
          "name": "previousOwner",
          "type": "address"
        },
        {
          "indexed": true,
          "internalType": "address",
          "name": "newOwner",
          "type": "address"
        }
      ],
      "name": "OwnershipTransferred",
      "type": "event"
    },
    {
      "anonymous": false,
      "inputs": [
        {
          "indexed": true,
          "internalType": "address",
          "name": "from",
          "type": "address"
        },
        {
          "indexed": true,
          "internalType": "address",
          "name": "to",
          "type": "address"
        },
        {
          "indexed": true,
          "internalType": "uint256",
          "name": "tokenId",
          "type": "uint256"
        }
      ],
      "name": "Transfer",
      "type": "event"
    },
    {
      "anonymous": false,
      "inputs": [
        {
          "indexed": true,
          "internalType": "uint256",
          "name": "treeId",
          "type": "uint256"
        },
        {
          "indexed": true,
          "internalType": "address",
          "name": "executor",
          "type": "address"
        },
        {
          "indexed": false,
          "internalType": "string",
          "name": "imageHash",
          "type": "string"
        },
        {
          "indexed": false,
          "internalType": "string",
          "name": "documentHash",
          "type": "string"
        }
      ],
      "name": "TreePlanted",
      "type": "event"
    },
    {
      "anonymous": false,
      "inputs": [
        {
          "indexed": true,
          "internalType": "uint256",
          "name": "treeId",
          "type": "uint256"
        },
        {
          "indexed": true,
          "internalType": "address",
          "name": "donor",
          "type": "address"
        },
        {
          "indexed": false,
          "internalType": "uint256",
          "name": "amount",
          "type": "uint256"
        },
        {
          "indexed": false,
          "internalType": "uint256",
          "name": "treeCount",
          "type": "uint256"
        },
        {
          "indexed": false,
          "internalType": "string",
          "name": "location",
          "type": "string"
        }
      ],
      "name": "TreePurchased",
      "type": "event"
    },
    {
      "anonymous": false,
      "inputs": [
        {
          "indexed": true,
          "internalType": "uint256",
          "name": "treeId",
          "type": "uint256"
        },
        {
          "indexed": true,
          "internalType": "address",
          "name": "executor",
          "type": "address"
        },
        {
          "indexed": false,
          "internalType": "uint256",
          "name": "rewardAmount",
          "type": "uint256"
        }
      ],
      "name": "TreeVerified",
      "type": "event"
    },
    {
      "inputs": [],
      "name": "EXECUTOR_REWARD",
      "outputs": [
        {
          "internalType": "uint256",
          "name": "",
          "type": "uint256"
        }
      ],
      "stateMutability": "view",
      "type": "function"
    },
    {
      "inputs": [],
      "name": "PLATFORM_FEE",
      "outputs": [
        {
          "internalType": "uint256",
          "name": "",
          "type": "uint256"
        }
      ],
      "stateMutability": "view",
      "type": "function"
    },
    {
      "inputs": [],
      "name": "TREE_PRICE",
      "outputs": [
        {
          "internalType": "uint256",
          "name": "",
          "type": "uint256"
        }
      ],
      "stateMutability": "view",
      "type": "function"
    },
    {
      "inputs": [
        {
          "internalType": "address",
          "name": "to",
          "type": "address"
        },
        {
          "internalType": "uint256",
          "name": "tokenId",
          "type": "uint256"
        }
      ],
      "name": "approve",
      "outputs": [],
      "stateMutability": "nonpayable",
      "type": "function"
    },
    {
      "inputs": [
        {
          "internalType": "address",
          "name": "owner",
          "type": "address"
        }
      ],
      "name": "balanceOf",
      "outputs": [
        {
          "internalType": "uint256",
          "name": "",
          "type": "uint256"
        }
      ],
      "stateMutability": "view",
      "type": "function"
    },
    {
      "inputs": [
        {
          "internalType": "address",
          "name": "",
          "type": "address"
        }
      ],
      "name": "donorTreeCount",
      "outputs": [
        {
          "internalType": "uint256",
          "name": "",
          "type": "uint256"
        }
      ],
      "stateMutability": "view",
      "type": "function"
    },
    {
      "inputs": [],
      "name": "emergencyWithdraw",
      "outputs": [],
      "stateMutability": "nonpayable",
      "type": "function"
    },
    {
      "inputs": [
        {
          "internalType": "address",
          "name": "",
          "type": "address"
        }
      ],
      "name": "executorTreeCount",
      "outputs": [
        {
          "internalType": "uint256",
          "name": "",
          "type": "uint256"
        }
      ],
      "stateMutability": "view",
      "type": "function"
    },
    {
      "inputs": [
        {
          "internalType": "uint256",
          "name": "tokenId",
          "type": "uint256"
        }
      ],
      "name": "getApproved",
      "outputs": [
        {
          "internalType": "address",
          "name": "",
          "type": "address"
        }
      ],
      "stateMutability": "view",
      "type": "function"
    },
    {
      "inputs": [
        {
          "internalType": "address",
          "name": "enterprise",
          "type": "address"
        }
      ],
      "name": "getEnterpriseStats",
      "outputs": [
        {
          "internalType": "uint256",
          "name": "_donatedTrees",
          "type": "uint256"
        },
        {
          "internalType": "uint256",
          "name": "_totalSpent",
          "type": "uint256"
        }
      ],
      "stateMutability": "view",
      "type": "function"
    },
    {
      "inputs": [],
      "name": "getPlatformStats",
      "outputs": [
        {
          "internalType": "uint256",
          "name": "_totalTreesPlanted",
          "type": "uint256"
        },
        {
          "internalType": "uint256",
          "name": "_totalDonations",
          "type": "uint256"
        },
        {
          "internalType": "uint256",
          "name": "_totalRewardsPaid",
          "type": "uint256"
        },
        {
          "internalType": "uint256",
          "name": "_availableBalance",
          "type": "uint256"
        }
      ],
      "stateMutability": "view",
      "type": "function"
    },
    {
      "inputs": [
        {
          "internalType": "uint256",
          "name": "treeId",
          "type": "uint256"
        }
      ],
      "name": "getTree",
      "outputs": [
        {
          "components": [
            {
              "internalType": "uint256",
              "name": "id",
              "type": "uint256"
            },
            {
              "internalType": "uint256",
              "name": "treeCount",
              "type": "uint256"
            },
            {
              "internalType": "string",
              "name": "location",
              "type": "string"
            },
            {
              "internalType": "string",
              "name": "imageHash",
              "type": "string"
            },
            {
              "internalType": "string",
              "name": "documentHash",
              "type": "string"
            },
            {
              "internalType": "address",
              "name": "donor",
              "type": "address"
            },
            {
              "internalType": "address",
              "name": "executor",
              "type": "address"
            },
            {
              "internalType": "uint256",
              "name": "donationAmount",
              "type": "uint256"
            },
            {
              "internalType": "uint256",
              "name": "rewardAmount",
              "type": "uint256"
            },
            {
              "internalType": "bool",
              "name": "isVerified",
              "type": "bool"
            },
            {
              "internalType": "uint256",
              "name": "plantedAt",
              "type": "uint256"
            },
            {
              "internalType": "uint256",
              "name": "verifiedAt",
              "type": "uint256"
            }
          ],
          "internalType": "struct TreeChain.Tree",
          "name": "tree",
          "type": "tuple"
        }
      ],
      "stateMutability": "view",
      "type": "function"
    },
    {
      "inputs": [
        {
          "internalType": "address",
          "name": "user",
          "type": "address"
        }
      ],
      "name": "getUserStats",
      "outputs": [
        {
          "internalType": "uint256",
          "name": "_donatedTrees",
          "type": "uint256"
        },
        {
          "internalType": "uint256",
          "name": "_plantedTrees",
          "type": "uint256"
        }
      ],
      "stateMutability": "view",
      "type": "function"
    },
    {
      "inputs": [
        {
          "internalType": "address",
          "name": "owner",
          "type": "address"
        },
        {
          "internalType": "address",
          "name": "operator",
          "type": "address"
        }
      ],
      "name": "isApprovedForAll",
      "outputs": [
        {
          "internalType": "bool",
          "name": "",
          "type": "bool"
        }
      ],
      "stateMutability": "view",
      "type": "function"
    },
    {
      "inputs": [],
      "name": "name",
      "outputs": [
        {
          "internalType": "string",
          "name": "",
          "type": "string"
        }
      ],
      "stateMutability": "view",
      "type": "function"
    },
    {
      "inputs": [],
      "name": "owner",
      "outputs": [
        {
          "internalType": "address",
          "name": "",
          "type": "address"
        }
      ],
      "stateMutability": "view",
      "type": "function"
    },
    {
      "inputs": [
        {
          "internalType": "uint256",
          "name": "tokenId",
          "type": "uint256"
        }
      ],
      "name": "ownerOf",
      "outputs": [
        {
          "internalType": "address",
          "name": "",
          "type": "address"
        }
      ],
      "stateMutability": "view",
      "type": "function"
    },
    {
      "inputs": [
        {
          "internalType": "uint256",
          "name": "treeId",
          "type": "uint256"
        },
        {
          "internalType": "string",
          "name": "imageHash",
          "type": "string"
        },
        {
          "internalType": "string",
          "name": "documentHash",
          "type": "string"
        }
      ],
      "name": "plantTree",
      "outputs": [],
      "stateMutability": "nonpayable",
      "type": "function"
    },
    {
      "inputs": [
        {
          "internalType": "uint256",
          "name": "treeCount",
          "type": "uint256"
        },
        {
          "internalType": "string",
          "name": "location",
          "type": "string"
        }
      ],
      "name": "purchaseTree",
      "outputs": [],
      "stateMutability": "payable",
      "type": "function"
    },
    {
      "inputs": [
        {
          "internalType": "uint256",
          "name": "treeCount",
          "type": "uint256"
        },
        {
          "internalType": "string",
          "name": "location",
          "type": "string"
        },
        {
          "internalType": "string",
          "name": "enterpriseName",
          "type": "string"
        }
      ],
      "name": "purchaseTreeAsEnterprise",
      "outputs": [],
      "stateMutability": "payable",
      "type": "function"
    },
    {
      "inputs": [],
      "name": "renounceOwnership",
      "outputs": [],
      "stateMutability": "nonpayable",
      "type": "function"
    },
    {
      "inputs": [
        {
          "internalType": "address",
          "name": "from",
          "type": "address"
        },
        {
          "internalType": "address",
          "name": "to",
          "type": "address"
        },
        {
          "internalType": "uint256",
          "name": "tokenId",
          "type": "uint256"
        }
      ],
      "name": "safeTransferFrom",
      "outputs": [],
      "stateMutability": "nonpayable",
      "type": "function"
    },
    {
      "inputs": [
        {
          "internalType": "address",
          "name": "from",
          "type": "address"
        },
        {
          "internalType": "address",
          "name": "to",
          "type": "address"
        },
        {
          "internalType": "uint256",
          "name": "tokenId",
          "type": "uint256"
        },
        {
          "internalType": "bytes",
          "name": "data",
          "type": "bytes"
        }
      ],
      "name": "safeTransferFrom",
      "outputs": [],
      "stateMutability": "nonpayable",
      "type": "function"
    },
    {
      "inputs": [
        {
          "internalType": "address",
          "name": "operator",
          "type": "address"
        },
        {
          "internalType": "bool",
          "name": "approved",
          "type": "bool"
        }
      ],
      "name": "setApprovalForAll",
      "outputs": [],
      "stateMutability": "nonpayable",
      "type": "function"
    },
    {
      "inputs": [
        {
          "internalType": "bytes4",
          "name": "interfaceId",
          "type": "bytes4"
        }
      ],
      "name": "supportsInterface",
      "outputs": [
        {
          "internalType": "bool",
          "name": "",
          "type": "bool"
        }
      ],
      "stateMutability": "view",
      "type": "function"
    },
    {
      "inputs": [],
      "name": "symbol",
      "outputs": [
        {
          "internalType": "string",
          "name": "",
          "type": "string"
        }
      ],
      "stateMutability": "view",
      "type": "function"
    },
    {
      "inputs": [
        {
          "internalType": "uint256",
          "name": "tokenId",
          "type": "uint256"
        }
      ],
      "name": "tokenURI",
      "outputs": [
        {
          "internalType": "string",
          "name": "",
          "type": "string"
        }
      ],
      "stateMutability": "view",
      "type": "function"
    },
    {
      "inputs": [],
      "name": "totalDonations",
      "outputs": [
        {
          "internalType": "uint256",
          "name": "",
          "type": "uint256"
        }
      ],
      "stateMutability": "view",
      "type": "function"
    },
    {
      "inputs": [],
      "name": "totalRewardsPaid",
      "outputs": [
        {
          "internalType": "uint256",
          "name": "",
          "type": "uint256"
        }
      ],
      "stateMutability": "view",
      "type": "function"
    },
    {
      "inputs": [],
      "name": "totalTreesPlanted",
      "outputs": [
        {
          "internalType": "uint256",
          "name": "",
          "type": "uint256"
        }
      ],
      "stateMutability": "view",
      "type": "function"
    },
    {
      "inputs": [
        {
          "internalType": "address",
          "name": "from",
          "type": "address"
        },
        {
          "internalType": "address",
          "name": "to",
          "type": "address"
        },
        {
          "internalType": "uint256",
          "name": "tokenId",
          "type": "uint256"
        }
      ],
      "name": "transferFrom",
      "outputs": [],
      "stateMutability": "nonpayable",
      "type": "function"
    },
    {
      "inputs": [
        {
          "internalType": "address",
          "name": "newOwner",
          "type": "address"
        }
      ],
      "name": "transferOwnership",
      "outputs": [],
      "stateMutability": "nonpayable",
      "type": "function"
    },
    {
      "inputs": [
        {
          "internalType": "uint256",
          "name": "",
          "type": "uint256"
        }
      ],
      "name": "trees",
      "outputs": [
        {
          "internalType": "uint256",
          "name": "id",
          "type": "uint256"
        },
        {
          "internalType": "uint256",
          "name": "treeCount",
          "type": "uint256"
        },
        {
          "internalType": "string",
          "name": "location",
          "type": "string"
        },
        {
          "internalType": "string",
          "name": "imageHash",
          "type": "string"
        },
        {
          "internalType": "string",
          "name": "documentHash",
          "type": "string"
        },
        {
          "internalType": "address",
          "name": "donor",
          "type": "address"
        },
        {
          "internalType": "address",
          "name": "executor",
          "type": "address"
        },
        {
          "internalType": "uint256",
          "name": "donationAmount",
          "type": "uint256"
        },
        {
          "internalType": "uint256",
          "name": "rewardAmount",
          "type": "uint256"
        },
        {
          "internalType": "bool",
          "name": "isVerified",
          "type": "bool"
        },
        {
          "internalType": "uint256",
          "name": "plantedAt",
          "type": "uint256"
        },
        {
          "internalType": "uint256",
          "name": "verifiedAt",
          "type": "uint256"
        }
      ],
      "stateMutability": "view",
      "type": "function"
    },
    {
      "inputs": [
        {
          "internalType": "uint256",
          "name": "treeId",
          "type": "uint256"
        },
        {
          "internalType": "bool",
          "name": "approved",
          "type": "bool"
        }
      ],
      "name": "verifyTree",
      "outputs": [],
      "stateMutability": "nonpayable",
      "type": "function"
    },
    {
      "inputs": [
        {
          "internalType": "uint256",
          "name": "amount",
          "type": "uint256"
        },
        {
          "internalType": "string",
          "name": "purpose",
          "type": "string"
        }
      ],
      "name": "withdrawFunds",
      "outputs": [],
      "stateMutability": "nonpayable",
      "type": "function"
    },
    {
      "stateMutability": "payable",
      "type": "receive"
    }
  ],
  "transactionHash": "0x5b042b620a1025c5ee961c3f390eb0e9bf670ebc956b7937131f1611785d4260",
  "args": [],
  "numDeployments": 3,
  "solcInputHash": "65e2eb60146d46bc677f12fab1837c7a",
  "bytecode": "0x60806040523480156200001157600080fd5b50336040518060400160405280600d81526020016c151c995950da185a5b88139195609a1b815250604051806040016040528060048152602001635452454560e01b8152508160009081620000679190620001b6565b506001620000768282620001b6565b5050506001600160a01b038116620000a857604051631e4fbdf760e01b81526000600482015260240160405180910390fd5b620000b381620000bf565b50600160075562000282565b600680546001600160a01b038381166001600160a01b0319831681179093556040519116919082907f8be0079c531659141344cd1fd0a4f28419497f9722a3daafe3b4186f6b6457e090600090a35050565b634e487b7160e01b600052604160045260246000fd5b600181811c908216806200013c57607f821691505b6020821081036200015d57634e487b7160e01b600052602260045260246000fd5b50919050565b601f821115620001b157600081815260208120601f850160051c810160208610156200018c5750805b601f850160051c820191505b81811015620001ad5782815560010162000198565b5050505b505050565b81516001600160401b03811115620001d257620001d262000111565b620001ea81620001e3845462000127565b8462000163565b602080601f831160018114620002225760008415620002095750858301515b600019600386901b1c1916600185901b178555620001ad565b600085815260208120601f198616915b82811015620002535788860151825594840194600190910190840162000232565b5085821015620002725787850151600019600388901b60f8161c191681555b5050505050600190811b01905550565b61319380620002926000396000f3fe6080604052600436106102085760003560e01c806374958e3511610118578063c4741f13116100a0578063db2e21bc1161006f578063db2e21bc1461067b578063de2ed89314610690578063e985e9c5146106a6578063f2fde38b146106c6578063ffe4560d146106e657600080fd5b8063c4741f13146105ee578063c87b56dd14610601578063d56e210114610621578063d6e85f161461064e57600080fd5b806395d89b41116100e757806395d89b411461055e5780639932f95b14610573578063a22cb46514610593578063b88d4fde146105b3578063c3e820ba146105d357600080fd5b806374958e35146104d25780637a508022146104e85780638da5cb5b146105205780638fc5ab4d1461053e57600080fd5b806323b872dd1161019b5780634e43603a1161016a5780634e43603a146104245780636352211e146104675780636dd4d84c1461048757806370a082311461049d578063715018a6146104bd57600080fd5b806323b872dd1461039c5780632435fc19146103bc57806334fbc9a1146103e957806342842e0e1461040457600080fd5b8063095ea7b3116101d7578063095ea7b3146102fd578063136d88831461031d57806313b8fc431461035457806314d7f9491461036757600080fd5b806301ffc9a71461024557806306fdde031461027a57806307a55b3b1461029c578063081812fc146102c557600080fd5b366102405761023e6040518060400160405280600f81526020016e0a4cac6cad2eccac8404ae6408aa89608b1b81525034610706565b005b600080fd5b34801561025157600080fd5b50610265610260366004612747565b61074f565b60405190151581526020015b60405180910390f35b34801561028657600080fd5b5061028f6107a1565b60405161027191906127bb565b3480156102a857600080fd5b506102b7660e35fa931a000081565b604051908152602001610271565b3480156102d157600080fd5b506102e56102e03660046127ce565b610833565b6040516001600160a01b039091168152602001610271565b34801561030957600080fd5b5061023e610318366004612803565b61085c565b34801561032957600080fd5b50600d54600e54600f5447604080519485526020850193909352918301526060820152608001610271565b61023e6103623660046128d9565b610867565b34801561037357600080fd5b50610387610382366004612946565b610c31565b60408051928352602083019190915201610271565b3480156103a857600080fd5b5061023e6103b7366004612961565b610c66565b3480156103c857600080fd5b506102b76103d7366004612946565b600b6020526000908152604090205481565b3480156103f557600080fd5b506102b766038d7ea4c6800081565b34801561041057600080fd5b5061023e61041f366004612961565b610cf1565b34801561043057600080fd5b5061038761043f366004612946565b6001600160a01b03166000908152600c6020908152604080832054600b909252909120549091565b34801561047357600080fd5b506102e56104823660046127ce565b610d0c565b34801561049357600080fd5b506102b7600d5481565b3480156104a957600080fd5b506102b76104b8366004612946565b610d17565b3480156104c957600080fd5b5061023e610d5f565b3480156104de57600080fd5b506102b7600f5481565b3480156104f457600080fd5b506105086105033660046127ce565b610d73565b6040516102719c9b9a9998979695949392919061299d565b34801561052c57600080fd5b506006546001600160a01b03166102e5565b34801561054a57600080fd5b5061023e610559366004612a40565b610f78565b34801561056a57600080fd5b5061028f611229565b34801561057f57600080fd5b5061023e61058e3660046128d9565b611238565b34801561059f57600080fd5b5061023e6105ae366004612a6c565b61142d565b3480156105bf57600080fd5b5061023e6105ce366004612a96565b611438565b3480156105df57600080fd5b506102b76611c37937e0800081565b61023e6105fc366004612b12565b611450565b34801561060d57600080fd5b5061028f61061c3660046127ce565b6117bf565b34801561062d57600080fd5b5061064161063c3660046127ce565b611848565b6040516102719190612b59565b34801561065a57600080fd5b506102b7610669366004612946565b600c6020526000908152604090205481565b34801561068757600080fd5b5061023e611b35565b34801561069c57600080fd5b506102b7600e5481565b3480156106b257600080fd5b506102656106c1366004612c47565b611c70565b3480156106d257600080fd5b5061023e6106e1366004612946565b611c9e565b3480156106f257600080fd5b5061023e610701366004612b12565b611cdc565b61074b828260405160240161071c929190612c71565b60408051601f198184030181529190526020810180516001600160e01b0316632d839cb360e21b179052611eb1565b5050565b60006001600160e01b031982166380ac58cd60e01b148061078057506001600160e01b03198216635b5e139f60e01b145b8061079b57506301ffc9a760e01b6001600160e01b03198316145b92915050565b6060600080546107b090612c93565b80601f01602080910402602001604051908101604052809291908181526020018280546107dc90612c93565b80156108295780601f106107fe57610100808354040283529160200191610829565b820191906000526020600020905b81548152906001019060200180831161080c57829003601f168201915b5050505050905090565b600061083e82611eba565b506000828152600460205260409020546001600160a01b031661079b565b61074b828233611ef3565b61086f611f00565b600083116108c45760405162461bcd60e51b815260206004820152601b60248201527f5472656520636f756e74206d75737420626520706f736974697665000000000060448201526064015b60405180910390fd5b6108d5836611c37937e08000612ce3565b34101561091b5760405162461bcd60e51b8152602060048201526014602482015273125b9cdd59999a58da595b9d081c185e5b595b9d60621b60448201526064016108bb565b60008251116109675760405162461bcd60e51b81526020600482015260186024820152774c6f636174696f6e2063616e6e6f7420626520656d70747960401b60448201526064016108bb565b60008151116109b85760405162461bcd60e51b815260206004820152601f60248201527f456e7465727072697365206e616d652063616e6e6f7420626520656d7074790060448201526064016108bb565b600880549060006109c883612cfa565b9091555050600854600980549060006109e083612cfa565b90915550506009546109f23382611f2a565b604051806101800160405280838152602001868152602001858152602001604051806020016040528060008152508152602001604051806020016040528060008152508152602001336001600160a01b0316815260200160006001600160a01b0316815260200134815260200186660e35fa931a0000610a729190612ce3565b81526000602080830182905260408084018390526060909301829052858252600a81529082902083518155908301516001820155908201516002820190610ab99082612d59565b5060608201516003820190610ace9082612d59565b5060808201516004820190610ae39082612d59565b5060a08201516005820180546001600160a01b039283166001600160a01b03199182161790915560c084015160068401805491909316911617905560e08201516007820155610100820151600882015561012082015160098201805491151560ff19909216919091179055610140820151600a82015561016090910151600b90910155336000908152600c602052604081208054879290610b85908490612e19565b9250508190555084600d6000828254610b9e9190612e19565b9250508190555034600e6000828254610bb79190612e19565b9091555050604051339083907fef03cb2e378d5096d365451cedbe32efb236c06b0a61a1ffc8cb345a8820da5a90610bf49034908a908a90612e2c565b60405180910390a3610c206040518060600160405280603581526020016130d560359139848734611f8f565b5050610c2c6001600755565b505050565b6001600160a01b0381166000908152600c60205260408120548190610c5d6611c37937e0800082612ce3565b91509150915091565b6001600160a01b038216610c9057604051633250574960e11b8152600060048201526024016108bb565b6000610c9d838333611fd8565b9050836001600160a01b0316816001600160a01b031614610ceb576040516364283d7b60e01b81526001600160a01b03808616600483015260248201849052821660448201526064016108bb565b50505050565b610c2c83838360405180602001604052806000815250611438565b600061079b82611eba565b60006001600160a01b038216610d43576040516322718ad960e21b8152600060048201526024016108bb565b506001600160a01b031660009081526003602052604090205490565b610d676120d1565b610d7160006120fe565b565b600a6020526000908152604090208054600182015460028301805492939192610d9b90612c93565b80601f0160208091040260200160405190810160405280929190818152602001828054610dc790612c93565b8015610e145780601f10610de957610100808354040283529160200191610e14565b820191906000526020600020905b815481529060010190602001808311610df757829003601f168201915b505050505090806003018054610e2990612c93565b80601f0160208091040260200160405190810160405280929190818152602001828054610e5590612c93565b8015610ea25780601f10610e7757610100808354040283529160200191610ea2565b820191906000526020600020905b815481529060010190602001808311610e8557829003601f168201915b505050505090806004018054610eb790612c93565b80601f0160208091040260200160405190810160405280929190818152602001828054610ee390612c93565b8015610f305780601f10610f0557610100808354040283529160200191610f30565b820191906000526020600020905b815481529060010190602001808311610f1357829003601f168201915b50505060058401546006850154600786015460088701546009880154600a890154600b9099015497986001600160a01b03958616989490951696509194509260ff909116918c565b600082118015610f8a57506008548211155b610fa65760405162461bcd60e51b81526004016108bb90612e54565b6000828152600a60205260409020600601546001600160a01b03166110045760405162461bcd60e51b8152602060048201526014602482015273151c9959481b9bdd081c1b185b9d1959081e595d60621b60448201526064016108bb565b6000828152600a602052604090206009015460ff161561105e5760405162461bcd60e51b8152602060048201526015602482015274151c995948185b1c9958591e481d995c9a599a5959605a1b60448201526064016108bb565b801561074b576000828152600a6020908152604080832060098101805460ff1916600190811790915542600b80840191909155600683015492909101546001600160a01b0390921680865293529083208054929391929091906110c2908490612e19565b90915550506000838152600a6020526040812060080154600f8054919290916110ec908490612e19565b90915550506000838152600a60205260408082206008015490516001600160a01b03841691908381818185875af1925050503d806000811461114a576040519150601f19603f3d011682016040523d82523d6000602084013e61114f565b606091505b50509050806111995760405162461bcd60e51b815260206004820152601660248201527514995dd85c99081d1c985b9cd9995c8819985a5b195960521b60448201526064016108bb565b816001600160a01b0316847ff1b338545b993ff069ea8a7bc2615f9de55821422c176ddbba097f993c95a1cd600a6000888152602001908152602001600020600801546040516111eb91815260200190565b60405180910390a3610ceb6040518060600160405280602a815260200161310a602a91396000868152600a6020526040902060080154869085612150565b6060600180546107b090612c93565b60008311801561124a57506008548311155b6112665760405162461bcd60e51b81526004016108bb90612e54565b6000838152600a60205260409020600601546001600160a01b0316156112c65760405162461bcd60e51b8152602060048201526015602482015274151c995948185b1c9958591e48185cdcda59db9959605a1b60448201526064016108bb565b600082511161130d5760405162461bcd60e51b8152602060048201526013602482015272125b5859d9481a185cda081c995c5d5a5c9959606a1b60448201526064016108bb565b60008151116113575760405162461bcd60e51b8152602060048201526016602482015275111bd8dd5b595b9d081a185cda081c995c5d5a5c995960521b60448201526064016108bb565b6000838152600a602052604090206006810180546001600160a01b031916331790556003016113868382612d59565b506000838152600a602052604090206004016113a28282612d59565b506000838152600a60208190526040918290204291015551339084907f87af4e441d8936dd00098b3479ef406a5460d85bb8aabaf86d10d154eb1f321f906113ed9086908690612e7d565b60405180910390a3610c2c604051806040016040528060158152602001745472656520257320706c616e74656420627920257360581b8152508433612199565b61074b3383836121e0565b611443848484610c66565b610ceb338585858561227f565b611458611f00565b600082116114a85760405162461bcd60e51b815260206004820152601b60248201527f5472656520636f756e74206d75737420626520706f736974697665000000000060448201526064016108bb565b6114b9826611c37937e08000612ce3565b3410156114ff5760405162461bcd60e51b8152602060048201526014602482015273125b9cdd59999a58da595b9d081c185e5b595b9d60621b60448201526064016108bb565b600081511161154b5760405162461bcd60e51b81526020600482015260186024820152774c6f636174696f6e2063616e6e6f7420626520656d70747960401b60448201526064016108bb565b6008805490600061155b83612cfa565b90915550506008546009805490600061157383612cfa565b90915550506009546115853382611f2a565b604051806101800160405280838152602001858152602001848152602001604051806020016040528060008152508152602001604051806020016040528060008152508152602001336001600160a01b0316815260200160006001600160a01b0316815260200134815260200185660e35fa931a00006116059190612ce3565b81526000602080830182905260408084018390526060909301829052858252600a8152908290208351815590830151600182015590820151600282019061164c9082612d59565b50606082015160038201906116619082612d59565b50608082015160048201906116769082612d59565b5060a08201516005820180546001600160a01b039283166001600160a01b03199182161790915560c084015160068401805491909316911617905560e08201516007820155610100820151600882015561012082015160098201805491151560ff19909216919091179055610140820151600a82015561016090910151600b90910155336000908152600c602052604081208054869290611718908490612e19565b9250508190555083600d60008282546117319190612e19565b9250508190555034600e600082825461174a9190612e19565b9091555050604051339083907fef03cb2e378d5096d365451cedbe32efb236c06b0a61a1ffc8cb345a8820da5a9061178790349089908990612e2c565b60405180910390a36117b36040518060600160405280602a8152602001613134602a91393386346123aa565b505061074b6001600755565b606060006117cc83610d0c565b6001600160a01b0316036118195760405162461bcd60e51b8152602060048201526014602482015273151bdad95b88191bd95cc81b9bdd08195e1a5cdd60621b60448201526064016108bb565b611822826123f3565b6040516020016118329190612ea2565b6040516020818303038152906040529050919050565b6118c0604051806101800160405280600081526020016000815260200160608152602001606081526020016060815260200160006001600160a01b0316815260200160006001600160a01b03168152602001600081526020016000815260200160001515815260200160008152602001600081525090565b6000821180156118d257506008548211155b6118ee5760405162461bcd60e51b81526004016108bb90612e54565b600a600083815260200190815260200160002060405180610180016040529081600082015481526020016001820154815260200160028201805461193190612c93565b80601f016020809104026020016040519081016040528092919081815260200182805461195d90612c93565b80156119aa5780601f1061197f576101008083540402835291602001916119aa565b820191906000526020600020905b81548152906001019060200180831161198d57829003601f168201915b505050505081526020016003820180546119c390612c93565b80601f01602080910402602001604051908101604052809291908181526020018280546119ef90612c93565b8015611a3c5780601f10611a1157610100808354040283529160200191611a3c565b820191906000526020600020905b815481529060010190602001808311611a1f57829003601f168201915b50505050508152602001600482018054611a5590612c93565b80601f0160208091040260200160405190810160405280929190818152602001828054611a8190612c93565b8015611ace5780601f10611aa357610100808354040283529160200191611ace565b820191906000526020600020905b815481529060010190602001808311611ab157829003601f168201915b505050918352505060058201546001600160a01b03908116602083015260068301541660408201526007820154606082015260088201546080820152600982015460ff16151560a0820152600a82015460c0820152600b9091015460e09091015292915050565b611b3d6120d1565b476000611b526006546001600160a01b031690565b6001600160a01b03168260405160006040518083038185875af1925050503d8060008114611b9c576040519150601f19603f3d011682016040523d82523d6000602084013e611ba1565b606091505b5050905080611bf25760405162461bcd60e51b815260206004820152601b60248201527f456d657267656e6379207769746864726177616c206661696c6564000000000060448201526064016108bb565b6006546001600160a01b03166001600160a01b03167fd30b68ba794ba733ec10c7ddce3e044482efdaa4c2e6b3d233800535afe5139b83604051611c6491815260406020820181905260149082015273115b595c99d95b98de481dda5d1a191c985dd85b60621b606082015260800190565b60405180910390a25050565b6001600160a01b03918216600090815260056020908152604080832093909416825291909152205460ff1690565b611ca66120d1565b6001600160a01b038116611cd057604051631e4fbdf760e01b8152600060048201526024016108bb565b611cd9816120fe565b50565b611ce46120d1565b47821115611d2b5760405162461bcd60e51b8152602060048201526014602482015273496e73756666696369656e742062616c616e636560601b60448201526064016108bb565b60008211611d7b5760405162461bcd60e51b815260206004820152601760248201527f416d6f756e74206d75737420626520706f73697469766500000000000000000060448201526064016108bb565b6000611d8f6006546001600160a01b031690565b6001600160a01b03168360405160006040518083038185875af1925050503d8060008114611dd9576040519150601f19603f3d011682016040523d82523d6000602084013e611dde565b606091505b5050905080611e235760405162461bcd60e51b815260206004820152601160248201527015da5d1a191c985dd85b0819985a5b1959607a1b60448201526064016108bb565b6006546001600160a01b03166001600160a01b03167fd30b68ba794ba733ec10c7ddce3e044482efdaa4c2e6b3d233800535afe5139b8484604051611e69929190612ef3565b60405180910390a2610c2c6040518060400160405280601881526020017f57697468647261776e2025732045544820666f723a202573000000000000000081525084846124fc565b611cd981612543565b6000818152600260205260408120546001600160a01b03168061079b57604051637e27328960e01b8152600481018490526024016108bb565b610c2c8383836001612564565b600260075403611f2357604051633ee5aeb560e01b815260040160405180910390fd5b6002600755565b6001600160a01b038216611f5457604051633250574960e11b8152600060048201526024016108bb565b6000611f6283836000611fd8565b90506001600160a01b03811615610c2c576040516339e3563760e11b8152600060048201526024016108bb565b610ceb84848484604051602401611fa99493929190612f0c565b60408051601f198184030181529190526020810180516001600160e01b0316633d175f4b60e21b179052611eb1565b6000828152600260205260408120546001600160a01b03908116908316156120055761200581848661266a565b6001600160a01b0381161561204357612022600085600080612564565b6001600160a01b038116600090815260036020526040902080546000190190555b6001600160a01b03851615612072576001600160a01b0385166000908152600360205260409020805460010190555b60008481526002602052604080822080546001600160a01b0319166001600160a01b0389811691821790925591518793918516917fddf252ad1be2c89b69c2b068fc378daa952ba7f163c4a11628f55a4df523b3ef91a4949350505050565b6006546001600160a01b03163314610d715760405163118cdaa760e01b81523360048201526024016108bb565b600680546001600160a01b038381166001600160a01b0319831681179093556040519116919082907f8be0079c531659141344cd1fd0a4f28419497f9722a3daafe3b4186f6b6457e090600090a35050565b610ceb8484848460405160240161216a9493929190612f45565b60408051601f198184030181529190526020810180516001600160e01b0316631c43bc4f60e31b179052611eb1565b610c2c8383836040516024016121b193929190612f7d565b60408051601f198184030181529190526020810180516001600160e01b031663038fd88960e31b179052611eb1565b6001600160a01b03821661221257604051630b61174360e31b81526001600160a01b03831660048201526024016108bb565b6001600160a01b03838116600081815260056020908152604080832094871680845294825291829020805460ff191686151590811790915591519182527f17307eab39ab6107e8899845ad3d59bd9653f200f220920489ca2b5937696c31910160405180910390a3505050565b6001600160a01b0383163b156123a357604051630a85bd0160e11b81526001600160a01b0384169063150b7a02906122c1908890889087908790600401612fb0565b6020604051808303816000875af19250505080156122fc575060408051601f3d908101601f191682019092526122f991810190612fed565b60015b612365573d80801561232a576040519150601f19603f3d011682016040523d82523d6000602084013e61232f565b606091505b50805160000361235d57604051633250574960e11b81526001600160a01b03851660048201526024016108bb565b805160208201fd5b6001600160e01b03198116630a85bd0160e11b146123a157604051633250574960e11b81526001600160a01b03851660048201526024016108bb565b505b5050505050565b610ceb848484846040516024016123c4949392919061300a565b60408051601f198184030181529190526020810180516001600160e01b0316637c7a8d8f60e11b179052611eb1565b60608160000361241a5750506040805180820190915260018152600360fc1b602082015290565b8160005b8115612444578061242e81612cfa565b915061243d9050600a83613058565b915061241e565b60008167ffffffffffffffff81111561245f5761245f61282d565b6040519080825280601f01601f191660200182016040528015612489576020820181803683370190505b5090505b84156124f45761249e60018361306c565b91506124ab600a8661307f565b6124b6906030612e19565b60f81b8183815181106124cb576124cb613093565b60200101906001600160f81b031916908160001a9053506124ed600a86613058565b945061248d565b949350505050565b610c2c838383604051602401612514939291906130a9565b60408051601f198184030181529190526020810180516001600160e01b0316635970e08960e01b179052611eb1565b60006a636f6e736f6c652e6c6f679050600080835160208501845afa505050565b808061257857506001600160a01b03821615155b1561263a57600061258884611eba565b90506001600160a01b038316158015906125b45750826001600160a01b0316816001600160a01b031614155b80156125c757506125c58184611c70565b155b156125f05760405163a9fbf51f60e01b81526001600160a01b03841660048201526024016108bb565b81156126385783856001600160a01b0316826001600160a01b03167f8c5be1e5ebec7d5bd14f71427d1e84f3dd0314c0f7b2291e5b200ac8c7c3b92560405160405180910390a45b505b5050600090815260046020526040902080546001600160a01b0319166001600160a01b0392909216919091179055565b6126758383836126ce565b610c2c576001600160a01b0383166126a357604051637e27328960e01b8152600481018290526024016108bb565b60405163177e802f60e01b81526001600160a01b0383166004820152602481018290526044016108bb565b60006001600160a01b038316158015906124f45750826001600160a01b0316846001600160a01b0316148061270857506127088484611c70565b806124f45750506000908152600460205260409020546001600160a01b03908116911614919050565b6001600160e01b031981168114611cd957600080fd5b60006020828403121561275957600080fd5b813561276481612731565b9392505050565b60005b8381101561278657818101518382015260200161276e565b50506000910152565b600081518084526127a781602086016020860161276b565b601f01601f19169290920160200192915050565b602081526000612764602083018461278f565b6000602082840312156127e057600080fd5b5035919050565b80356001600160a01b03811681146127fe57600080fd5b919050565b6000806040838503121561281657600080fd5b61281f836127e7565b946020939093013593505050565b634e487b7160e01b600052604160045260246000fd5b600067ffffffffffffffff8084111561285e5761285e61282d565b604051601f8501601f19908116603f011681019082821181831017156128865761288661282d565b8160405280935085815286868601111561289f57600080fd5b858560208301376000602087830101525050509392505050565b600082601f8301126128ca57600080fd5b61276483833560208501612843565b6000806000606084860312156128ee57600080fd5b83359250602084013567ffffffffffffffff8082111561290d57600080fd5b612919878388016128b9565b9350604086013591508082111561292f57600080fd5b5061293c868287016128b9565b9150509250925092565b60006020828403121561295857600080fd5b612764826127e7565b60008060006060848603121561297657600080fd5b61297f846127e7565b925061298d602085016127e7565b9150604084013590509250925092565b60006101808e83528d60208401528060408401526129bd8184018e61278f565b905082810360608401526129d1818d61278f565b905082810360808401526129e5818c61278f565b6001600160a01b039a8b1660a08501529890991660c08301525060e0810195909552610100850193909352901515610120840152610140830152610160909101529695505050505050565b803580151581146127fe57600080fd5b60008060408385031215612a5357600080fd5b82359150612a6360208401612a30565b90509250929050565b60008060408385031215612a7f57600080fd5b612a88836127e7565b9150612a6360208401612a30565b60008060008060808587031215612aac57600080fd5b612ab5856127e7565b9350612ac3602086016127e7565b925060408501359150606085013567ffffffffffffffff811115612ae657600080fd5b8501601f81018713612af757600080fd5b612b0687823560208401612843565b91505092959194509250565b60008060408385031215612b2557600080fd5b82359150602083013567ffffffffffffffff811115612b4357600080fd5b612b4f858286016128b9565b9150509250929050565b60208152815160208201526020820151604082015260006040830151610180806060850152612b8c6101a085018361278f565b91506060850151601f1980868503016080870152612baa848361278f565b935060808701519150808685030160a087015250612bc8838261278f565b92505060a0850151612be560c08601826001600160a01b03169052565b5060c08501516001600160a01b03811660e08601525060e08501516101008581019190915285015161012080860191909152850151610140612c2a8187018315159052565b860151610160868101919091529095015193019290925250919050565b60008060408385031215612c5a57600080fd5b612c63836127e7565b9150612a63602084016127e7565b604081526000612c84604083018561278f565b90508260208301529392505050565b600181811c90821680612ca757607f821691505b602082108103612cc757634e487b7160e01b600052602260045260246000fd5b50919050565b634e487b7160e01b600052601160045260246000fd5b808202811582820484141761079b5761079b612ccd565b600060018201612d0c57612d0c612ccd565b5060010190565b601f821115610c2c57600081815260208120601f850160051c81016020861015612d3a5750805b601f850160051c820191505b818110156123a157828155600101612d46565b815167ffffffffffffffff811115612d7357612d7361282d565b612d8781612d818454612c93565b84612d13565b602080601f831160018114612dbc5760008415612da45750858301515b600019600386901b1c1916600185901b1785556123a1565b600085815260208120601f198616915b82811015612deb57888601518255948401946001909101908401612dcc565b5085821015612e095787850151600019600388901b60f8161c191681555b5050505050600190811b01905550565b8082018082111561079b5761079b612ccd565b838152826020820152606060408201526000612e4b606083018461278f565b95945050505050565b6020808252600f908201526e125b9d985b1a59081d1c9959481251608a1b604082015260600190565b604081526000612e90604083018561278f565b8281036020840152612e4b818561278f565b7f68747470733a2f2f6170692e74726565636861696e2e6f72672f6d657461646181526274612f60e81b602082015260008251612ee681602385016020870161276b565b9190910160230192915050565b8281526040602082015260006124f4604083018461278f565b608081526000612f1f608083018761278f565b8281036020840152612f31818761278f565b604084019590955250506060015292915050565b608081526000612f58608083018761278f565b60208301959095525060408101929092526001600160a01b0316606090910152919050565b606081526000612f90606083018661278f565b6020830194909452506001600160a01b0391909116604090910152919050565b6001600160a01b0385811682528416602082015260408101839052608060608201819052600090612fe39083018461278f565b9695505050505050565b600060208284031215612fff57600080fd5b815161276481612731565b60808152600061301d608083018761278f565b6001600160a01b03959095166020830152506040810192909252606090910152919050565b634e487b7160e01b600052601260045260246000fd5b60008261306757613067613042565b500490565b8181038181111561079b5761079b612ccd565b60008261308e5761308e613042565b500690565b634e487b7160e01b600052603260045260246000fd5b6060815260006130bc606083018661278f565b8460208401528281036040840152612fe3818561278f56fe54726565732070757263686173656420627920656e74657270726973652025733a20257320747265657320666f7220257320455448547265652025732076657269666965642c20726577617264202573204554482073656e7420746f2025735472656573207075726368617365642062792025733a20257320747265657320666f7220257320455448a264697066735822122094c33e6ed7387abd8f7c3119cd394f9b8968d76eb2254f38e440da230b249dd964736f6c63430008140033",
  "devdoc": {
    "author": "TreeChain Team",
    "details": "      NFT    ",
    "errors": {
      "ERC721IncorrectOwner(address,uint256,address)": [
        {
          "details": "Indicates an error related to the ownership over a particular token. Used in transfers.",
          "params": {
            "owner": "Address of the current owner of a token.",
            "sender": "Address whose tokens are being transferred.",
            "tokenId": "Identifier number of a token."
          }
        }
      ],
      "ERC721InsufficientApproval(address,uint256)": [
        {
          "details": "Indicates a failure with the `operator`s approval. Used in transfers.",
          "params": {
            "operator": "Address that may be allowed to operate on tokens without being their owner.",
            "tokenId": "Identifier number of a token."
          }
        }
      ],
      "ERC721InvalidApprover(address)": [
        {
          "details": "Indicates a failure with the `approver` of a token to be approved. Used in approvals.",
          "params": {
            "approver": "Address initiating an approval operation."
          }
        }
      ],
      "ERC721InvalidOperator(address)": [
        {
          "details": "Indicates a failure with the `operator` to be approved. Used in approvals.",
          "params": {
            "operator": "Address that may be allowed to operate on tokens without being their owner."
          }
        }
      ],
      "ERC721InvalidOwner(address)": [
        {
          "details": "Indicates that an address can't be an owner. For example, `address(0)` is a forbidden owner in ERC-20. Used in balance queries.",
          "params": {
            "owner": "Address of the current owner of a token."
          }
        }
      ],
      "ERC721InvalidReceiver(address)": [
        {
          "details": "Indicates a failure with the token `receiver`. Used in transfers.",
          "params": {
            "receiver": "Address to which tokens are being transferred."
          }
        }
      ],
      "ERC721InvalidSender(address)": [
        {
          "details": "Indicates a failure with the token `sender`. Used in transfers.",
          "params": {
            "sender": "Address whose tokens are being transferred."
          }
        }
      ],
      "ERC721NonexistentToken(uint256)": [
        {
          "details": "Indicates a `tokenId` whose `owner` is the zero address.",
          "params": {
            "tokenId": "Identifier number of a token."
          }
        }
      ],
      "OwnableInvalidOwner(address)": [
        {
          "details": "The owner is not a valid owner account. (eg. `address(0)`)"
        }
      ],
      "OwnableUnauthorizedAccount(address)": [
        {
          "details": "The caller account is not authorized to perform an operation."
        }
      ],
      "ReentrancyGuardReentrantCall()": [
        {
          "details": "Unauthorized reentrant call."
        }
      ]
    },
    "events": {
      "Approval(address,address,uint256)": {
        "details": "Emitted when `owner` enables `approved` to manage the `tokenId` token."
      },
      "ApprovalForAll(address,address,bool)": {
        "details": "Emitted when `owner` enables or disables (`approved`) `operator` to manage all of its assets."
      },
      "Transfer(address,address,uint256)": {
        "details": "Emitted when `tokenId` token is transferred from `from` to `to`."
      }
    },
    "kind": "dev",
    "methods": {
      "approve(address,uint256)": {
        "details": "Gives permission to `to` to transfer `tokenId` token to another account. The approval is cleared when the token is transferred. Only a single account can be approved at a time, so approving the zero address clears previous approvals. Requirements: - The caller must own the token or be an approved operator. - `tokenId` must exist. Emits an {Approval} event."
      },
      "balanceOf(address)": {
        "details": "Returns the number of tokens in ``owner``'s account."
      },
      "emergencyWithdraw()": {
        "details": "   "
      },
      "getApproved(uint256)": {
        "details": "Returns the account approved for `tokenId` token. Requirements: - `tokenId` must exist."
      },
      "getEnterpriseStats(address)": {
        "details": "  ",
        "params": {
          "enterprise": " "
        }
      },
      "getPlatformStats()": {
        "details": "  "
      },
      "getTree(uint256)": {
        "details": "   ",
        "params": {
          "treeId": "ID "
        },
        "returns": {
          "tree": " "
        }
      },
      "getUserStats(address)": {
        "details": "  ",
        "params": {
          "user": " "
        }
      },
      "isApprovedForAll(address,address)": {
        "details": "Returns if the `operator` is allowed to manage all of the assets of `owner`. See {setApprovalForAll}"
      },
      "name()": {
        "details": "Returns the token collection name."
      },
      "owner()": {
        "details": "Returns the address of the current owner."
      },
      "ownerOf(uint256)": {
        "details": "Returns the owner of the `tokenId` token. Requirements: - `tokenId` must exist."
      },
      "plantTree(uint256,string,string)": {
        "details": "    ",
        "params": {
          "documentHash": "IPFS  ",
          "imageHash": "IPFS  ",
          "treeId": "ID "
        }
      },
      "purchaseTree(uint256,string)": {
        "details": " NFT  ",
        "params": {
          "location": "  ",
          "treeCount": " "
        }
      },
      "purchaseTreeAsEnterprise(uint256,string,string)": {
        "details": " NFT  ",
        "params": {
          "enterpriseName": " ",
          "location": "  ",
          "treeCount": " "
        }
      },
      "renounceOwnership()": {
        "details": "Leaves the contract without owner. It will not be possible to call `onlyOwner` functions. Can only be called by the current owner. NOTE: Renouncing ownership will leave the contract without an owner, thereby disabling any functionality that is only available to the owner."
      },
      "safeTransferFrom(address,address,uint256)": {
        "details": "Safely transfers `tokenId` token from `from` to `to`, checking first that contract recipients are aware of the ERC-721 protocol to prevent tokens from being forever locked. Requirements: - `from` cannot be the zero address. - `to` cannot be the zero address. - `tokenId` token must exist and be owned by `from`. - If the caller is not `from`, it must have been allowed to move this token by either {approve} or   {setApprovalForAll}. - If `to` refers to a smart contract, it must implement {IERC721Receiver-onERC721Received}, which is called upon   a safe transfer. Emits a {Transfer} event."
      },
      "safeTransferFrom(address,address,uint256,bytes)": {
        "details": "Safely transfers `tokenId` token from `from` to `to`. Requirements: - `from` cannot be the zero address. - `to` cannot be the zero address. - `tokenId` token must exist and be owned by `from`. - If the caller is not `from`, it must be approved to move this token by either {approve} or {setApprovalForAll}. - If `to` refers to a smart contract, it must implement {IERC721Receiver-onERC721Received}, which is called upon   a safe transfer. Emits a {Transfer} event."
      },
      "setApprovalForAll(address,bool)": {
        "details": "Approve or remove `operator` as an operator for the caller. Operators can call {transferFrom} or {safeTransferFrom} for any token owned by the caller. Requirements: - The `operator` cannot be the address zero. Emits an {ApprovalForAll} event."
      },
      "supportsInterface(bytes4)": {
        "details": "Returns true if this contract implements the interface defined by `interfaceId`. See the corresponding https://eips.ethereum.org/EIPS/eip-165#how-interfaces-are-identified[ERC section] to learn more about how these ids are created. This function call must use less than 30 000 gas."
      },
      "symbol()": {
        "details": "Returns the token collection symbol."
      },
      "tokenURI(uint256)": {
        "details": " tokenURI   NFT"
      },
      "transferFrom(address,address,uint256)": {
        "details": "Transfers `tokenId` token from `from` to `to`. WARNING: Note that the caller is responsible to confirm that the recipient is capable of receiving ERC-721 or else they may be permanently lost. Usage of {safeTransferFrom} prevents loss, though the caller must understand this adds an external call which potentially creates a reentrancy vulnerability. Requirements: - `from` cannot be the zero address. - `to` cannot be the zero address. - `tokenId` token must be owned by `from`. - If the caller is not `from`, it must be approved to move this token by either {approve} or {setApprovalForAll}. Emits a {Transfer} event."
      },
      "transferOwnership(address)": {
        "details": "Transfers ownership of the contract to a new account (`newOwner`). Can only be called by the current owner."
      },
      "verifyTree(uint256,bool)": {
        "details": "   ( )",
        "params": {
          "approved": "  ",
          "treeId": "ID "
        }
      },
      "withdrawFunds(uint256,string)": {
        "details": "  ",
        "params": {
          "amount": "  ",
          "purpose": " "
        }
      }
    },
    "title": "TreeChain",
    "version": 1
  },
  "userdoc": {
    "kind": "user",
    "methods": {},
    "version": 1
  },
  "storageLayout": {
    "storage": [
      {
        "astId": 936,
        "contract": "contracts/TreeChain.sol:TreeChain",
        "label": "_name",
        "offset": 0,
        "slot": "0",
        "type": "t_string_storage"
      },
      {
        "astId": 938,
        "contract": "contracts/TreeChain.sol:TreeChain",
        "label": "_symbol",
        "offset": 0,
        "slot": "1",
        "type": "t_string_storage"
      },
      {
        "astId": 942,
        "contract": "contracts/TreeChain.sol:TreeChain",
        "label": "_owners",
        "offset": 0,
        "slot": "2",
        "type": "t_mapping(t_uint256,t_address)"
      },
      {
        "astId": 946,
        "contract": "contracts/TreeChain.sol:TreeChain",
        "label": "_balances",
        "offset": 0,
        "slot": "3",
        "type": "t_mapping(t_address,t_uint256)"
      },
      {
        "astId": 950,
        "contract": "contracts/TreeChain.sol:TreeChain",
        "label": "_tokenApprovals",
        "offset": 0,
        "slot": "4",
        "type": "t_mapping(t_uint256,t_address)"
      },
      {
        "astId": 956,
        "contract": "contracts/TreeChain.sol:TreeChain",
        "label": "_operatorApprovals",
        "offset": 0,
        "slot": "5",
        "type": "t_mapping(t_address,t_mapping(t_address,t_bool))"
      },
      {
        "astId": 8,
        "contract": "contracts/TreeChain.sol:TreeChain",
        "label": "_owner",
        "offset": 0,
        "slot": "6",
        "type": "t_address"
      },
      {
        "astId": 2193,
        "contract": "contracts/TreeChain.sol:TreeChain",
        "label": "_status",
        "offset": 0,
        "slot": "7",
        "type": "t_uint256"
      },
      {
        "astId": 7260,
        "contract": "contracts/TreeChain.sol:TreeChain",
        "label": "_treeIds",
        "offset": 0,
        "slot": "8",
        "type": "t_uint256"
      },
      {
        "astId": 7262,
        "contract": "contracts/TreeChain.sol:TreeChain",
        "label": "_tokenIds",
        "offset": 0,
        "slot": "9",
        "type": "t_uint256"
      },
      {
        "astId": 7267,
        "contract": "contracts/TreeChain.sol:TreeChain",
        "label": "trees",
        "offset": 0,
        "slot": "10",
        "type": "t_mapping(t_uint256,t_struct(Tree)7258_storage)"
      },
      {
        "astId": 7271,
        "contract": "contracts/TreeChain.sol:TreeChain",
        "label": "executorTreeCount",
        "offset": 0,
        "slot": "11",
        "type": "t_mapping(t_address,t_uint256)"
      },
      {
        "astId": 7275,
        "contract": "contracts/TreeChain.sol:TreeChain",
        "label": "donorTreeCount",
        "offset": 0,
        "slot": "12",
        "type": "t_mapping(t_address,t_uint256)"
      },
      {
        "astId": 7277,
        "contract": "contracts/TreeChain.sol:TreeChain",
        "label": "totalTreesPlanted",
        "offset": 0,
        "slot": "13",
        "type": "t_uint256"
      },
      {
        "astId": 7279,
        "contract": "contracts/TreeChain.sol:TreeChain",
        "label": "totalDonations",
        "offset": 0,
        "slot": "14",
        "type": "t_uint256"
      },
      {
        "astId": 7281,
        "contract": "contracts/TreeChain.sol:TreeChain",
        "label": "totalRewardsPaid",
        "offset": 0,
        "slot": "15",
        "type": "t_uint256"
      }
    ],
    "types": {
      "t_address": {
        "encoding": "inplace",
        "label": "address",
        "numberOfBytes": "20"
      },
      "t_bool": {
        "encoding": "inplace",
        "label": "bool",
        "numberOfBytes": "1"
      },
      "t_mapping(t_address,t_bool)": {
        "encoding": "mapping",
        "key": "t_address",
        "label": "mapping(address => bool)",
        "numberOfBytes": "32",
        "value": "t_bool"
      },
      "t_mapping(t_address,t_mapping(t_address,t_bool))": {
        "encoding": "mapping",
        "key": "t_address",
        "label": "mapping(address => mapping(address => bool))",
        "numberOfBytes": "32",
        "value": "t_mapping(t_address,t_bool)"
      },
      "t_mapping(t_address,t_uint256)": {
        "encoding": "mapping",
        "key": "t_address",
        "label": "mapping(address => uint256)",
        "numberOfBytes": "32",
        "value": "t_uint256"
      },
      "t_mapping(t_uint256,t_address)": {
        "encoding": "mapping",
        "key": "t_uint256",
        "label": "mapping(uint256 => address)",
        "numberOfBytes": "32",
        "value": "t_address"
      },
      "t_mapping(t_uint256,t_struct(Tree)7258_storage)": {
        "encoding": "mapping",
        "key": "t_uint256",
        "label": "mapping(uint256 => struct TreeChain.Tree)",
        "numberOfBytes": "32",
        "value": "t_struct(Tree)7258_storage"
      },
      "t_string_storage": {
        "encoding": "bytes",
        "label": "string",
        "numberOfBytes": "32"
      },
      "t_struct(Tree)7258_storage": {
        "encoding": "inplace",
        "label": "struct TreeChain.Tree",
        "members": [
          {
            "astId": 7235,
            "contract": "contracts/TreeChain.sol:TreeChain",
            "label": "id",
            "offset": 0,
            "slot": "0",
            "type": "t_uint256"
          },
          {
            "astId": 7237,
            "contract": "contracts/TreeChain.sol:TreeChain",
            "label": "treeCount",
            "offset": 0,
            "slot": "1",
            "type": "t_uint256"
          },
          {
            "astId": 7239,
            "contract": "contracts/TreeChain.sol:TreeChain",
            "label": "location",
            "offset": 0,
            "slot": "2",
            "type": "t_string_storage"
          },
          {
            "astId": 7241,
            "contract": "contracts/TreeChain.sol:TreeChain",
            "label": "imageHash",
            "offset": 0,
            "slot": "3",
            "type": "t_string_storage"
          },
          {
            "astId": 7243,
            "contract": "contracts/TreeChain.sol:TreeChain",
            "label": "documentHash",
            "offset": 0,
            "slot": "4",
            "type": "t_string_storage"
          },
          {
            "astId": 7245,
            "contract": "contracts/TreeChain.sol:TreeChain",
            "label": "donor",
            "offset": 0,
            "slot": "5",
            "type": "t_address"
          },
          {
            "astId": 7247,
            "contract": "contracts/TreeChain.sol:TreeChain",
            "label": "executor",
            "offset": 0,
            "slot": "6",
            "type": "t_address"
          },
          {
            "astId": 7249,
            "contract": "contracts/TreeChain.sol:TreeChain",
            "label": "donationAmount",
            "offset": 0,
            "slot": "7",
            "type": "t_uint256"
          },
          {
            "astId": 7251,
            "contract": "contracts/TreeChain.sol:TreeChain",
            "label": "rewardAmount",
            "offset": 0,
            "slot": "8",
            "type": "t_uint256"
          },
          {
            "astId": 7253,
            "contract": "contracts/TreeChain.sol:TreeChain",
            "label": "isVerified",
            "offset": 0,
            "slot": "9",
            "type": "t_bool"
          },
          {
            "astId": 7255,
            "contract": "contracts/TreeChain.sol:TreeChain",
            "label": "plantedAt",
            "offset": 0,
            "slot": "10",
            "type": "t_uint256"
          },
          {
            "astId": 7257,
            "contract": "contracts/TreeChain.sol:TreeChain",
            "label": "verifiedAt",
            "offset": 0,
            "slot": "11",
            "type": "t_uint256"
          }
        ],
        "numberOfBytes": "384"
      },
      "t_uint256": {
        "encoding": "inplace",
        "label": "uint256",
        "numberOfBytes": "32"
      }
    }
  }
}