{
  "address": "0xec9B82535b9Dc2d6e29b744Ebb8526f190d544fA",
  "abi": [
    {
      "inputs": [],
      "stateMutability": "nonpayable",
      "type": "constructor"
    },
    {
      "inputs": [
        {
          "internalType": "address",
          "name": "spender",
          "type": "address"
        },
        {
          "internalType": "uint256",
          "name": "allowance",
          "type": "uint256"
        },
        {
          "internalType": "uint256",
          "name": "needed",
          "type": "uint256"
        }
      ],
      "name": "ERC20InsufficientAllowance",
      "type": "error"
    },
    {
      "inputs": [
        {
          "internalType": "address",
          "name": "sender",
          "type": "address"
        },
        {
          "internalType": "uint256",
          "name": "balance",
          "type": "uint256"
        },
        {
          "internalType": "uint256",
          "name": "needed",
          "type": "uint256"
        }
      ],
      "name": "ERC20InsufficientBalance",
      "type": "error"
    },
    {
      "inputs": [
        {
          "internalType": "address",
          "name": "approver",
          "type": "address"
        }
      ],
      "name": "ERC20InvalidApprover",
      "type": "error"
    },
    {
      "inputs": [
        {
          "internalType": "address",
          "name": "receiver",
          "type": "address"
        }
      ],
      "name": "ERC20InvalidReceiver",
      "type": "error"
    },
    {
      "inputs": [
        {
          "internalType": "address",
          "name": "sender",
          "type": "address"
        }
      ],
      "name": "ERC20InvalidSender",
      "type": "error"
    },
    {
      "inputs": [
        {
          "internalType": "address",
          "name": "spender",
          "type": "address"
        }
      ],
      "name": "ERC20InvalidSpender",
      "type": "error"
    },
    {
      "inputs": [
        {
          "internalType": "address",
          "name": "owner",
          "type": "address"
        }
      ],
      "name": "OwnableInvalidOwner",
      "type": "error"
    },
    {
      "inputs": [
        {
          "internalType": "address",
          "name": "account",
          "type": "address"
        }
      ],
      "name": "OwnableUnauthorizedAccount",
      "type": "error"
    },
    {
      "inputs": [],
      "name": "ReentrancyGuardReentrantCall",
      "type": "error"
    },
    {
      "anonymous": false,
      "inputs": [
        {
          "indexed": true,
          "internalType": "address",
          "name": "owner",
          "type": "address"
        },
        {
          "indexed": true,
          "internalType": "address",
          "name": "spender",
          "type": "address"
        },
        {
          "indexed": false,
          "internalType": "uint256",
          "name": "value",
          "type": "uint256"
        }
      ],
      "name": "Approval",
      "type": "event"
    },
    {
      "anonymous": false,
      "inputs": [
        {
          "indexed": true,
          "internalType": "address",
          "name": "previousOwner",
          "type": "address"
        },
        {
          "indexed": true,
          "internalType": "address",
          "name": "newOwner",
          "type": "address"
        }
      ],
      "name": "OwnershipTransferred",
      "type": "event"
    },
    {
      "anonymous": false,
      "inputs": [
        {
          "indexed": true,
          "internalType": "address",
          "name": "executor",
          "type": "address"
        },
        {
          "indexed": false,
          "internalType": "uint256",
          "name": "amount",
          "type": "uint256"
        },
        {
          "indexed": false,
          "internalType": "uint256",
          "name": "treeCount",
          "type": "uint256"
        }
      ],
      "name": "RewardsDistributed",
      "type": "event"
    },
    {
      "anonymous": false,
      "inputs": [
        {
          "indexed": true,
          "internalType": "address",
          "name": "from",
          "type": "address"
        },
        {
          "indexed": false,
          "internalType": "uint256",
          "name": "amount",
          "type": "uint256"
        }
      ],
      "name": "TokensBurned",
      "type": "event"
    },
    {
      "anonymous": false,
      "inputs": [
        {
          "indexed": true,
          "internalType": "address",
          "name": "from",
          "type": "address"
        },
        {
          "indexed": true,
          "internalType": "address",
          "name": "to",
          "type": "address"
        },
        {
          "indexed": false,
          "internalType": "uint256",
          "name": "value",
          "type": "uint256"
        }
      ],
      "name": "Transfer",
      "type": "event"
    },
    {
      "inputs": [],
      "name": "INITIAL_SUPPLY",
      "outputs": [
        {
          "internalType": "uint256",
          "name": "",
          "type": "uint256"
        }
      ],
      "stateMutability": "view",
      "type": "function"
    },
    {
      "inputs": [],
      "name": "REWARD_PER_TREE",
      "outputs": [
        {
          "internalType": "uint256",
          "name": "",
          "type": "uint256"
        }
      ],
      "stateMutability": "view",
      "type": "function"
    },
    {
      "inputs": [
        {
          "internalType": "address",
          "name": "owner",
          "type": "address"
        },
        {
          "internalType": "address",
          "name": "spender",
          "type": "address"
        }
      ],
      "name": "allowance",
      "outputs": [
        {
          "internalType": "uint256",
          "name": "",
          "type": "uint256"
        }
      ],
      "stateMutability": "view",
      "type": "function"
    },
    {
      "inputs": [
        {
          "internalType": "address",
          "name": "spender",
          "type": "address"
        },
        {
          "internalType": "uint256",
          "name": "value",
          "type": "uint256"
        }
      ],
      "name": "approve",
      "outputs": [
        {
          "internalType": "bool",
          "name": "",
          "type": "bool"
        }
      ],
      "stateMutability": "nonpayable",
      "type": "function"
    },
    {
      "inputs": [
        {
          "internalType": "address",
          "name": "account",
          "type": "address"
        }
      ],
      "name": "balanceOf",
      "outputs": [
        {
          "internalType": "uint256",
          "name": "",
          "type": "uint256"
        }
      ],
      "stateMutability": "view",
      "type": "function"
    },
    {
      "inputs": [
        {
          "internalType": "uint256",
          "name": "amount",
          "type": "uint256"
        }
      ],
      "name": "burnTokens",
      "outputs": [],
      "stateMutability": "nonpayable",
      "type": "function"
    },
    {
      "inputs": [],
      "name": "decimals",
      "outputs": [
        {
          "internalType": "uint8",
          "name": "",
          "type": "uint8"
        }
      ],
      "stateMutability": "view",
      "type": "function"
    },
    {
      "inputs": [
        {
          "internalType": "uint256",
          "name": "amount",
          "type": "uint256"
        }
      ],
      "name": "emergencyBurn",
      "outputs": [],
      "stateMutability": "nonpayable",
      "type": "function"
    },
    {
      "inputs": [
        {
          "internalType": "address",
          "name": "",
          "type": "address"
        }
      ],
      "name": "executorRewards",
      "outputs": [
        {
          "internalType": "uint256",
          "name": "",
          "type": "uint256"
        }
      ],
      "stateMutability": "view",
      "type": "function"
    },
    {
      "inputs": [
        {
          "internalType": "address",
          "name": "executor",
          "type": "address"
        }
      ],
      "name": "getExecutorStats",
      "outputs": [
        {
          "internalType": "uint256",
          "name": "_totalRewards",
          "type": "uint256"
        },
        {
          "internalType": "uint256",
          "name": "_currentBalance",
          "type": "uint256"
        },
        {
          "internalType": "uint256",
          "name": "_treesRewarded",
          "type": "uint256"
        }
      ],
      "stateMutability": "view",
      "type": "function"
    },
    {
      "inputs": [],
      "name": "getTokenStats",
      "outputs": [
        {
          "internalType": "uint256",
          "name": "_totalSupply",
          "type": "uint256"
        },
        {
          "internalType": "uint256",
          "name": "_totalDistributed",
          "type": "uint256"
        },
        {
          "internalType": "uint256",
          "name": "_totalTreesRewarded",
          "type": "uint256"
        },
        {
          "internalType": "uint256",
          "name": "_ownerBalance",
          "type": "uint256"
        }
      ],
      "stateMutability": "view",
      "type": "function"
    },
    {
      "inputs": [
        {
          "internalType": "uint256",
          "name": "amount",
          "type": "uint256"
        }
      ],
      "name": "mintTokens",
      "outputs": [],
      "stateMutability": "nonpayable",
      "type": "function"
    },
    {
      "inputs": [],
      "name": "name",
      "outputs": [
        {
          "internalType": "string",
          "name": "",
          "type": "string"
        }
      ],
      "stateMutability": "view",
      "type": "function"
    },
    {
      "inputs": [],
      "name": "owner",
      "outputs": [
        {
          "internalType": "address",
          "name": "",
          "type": "address"
        }
      ],
      "stateMutability": "view",
      "type": "function"
    },
    {
      "inputs": [],
      "name": "renounceOwnership",
      "outputs": [],
      "stateMutability": "nonpayable",
      "type": "function"
    },
    {
      "inputs": [
        {
          "internalType": "address",
          "name": "executor",
          "type": "address"
        },
        {
          "internalType": "uint256",
          "name": "treeCount",
          "type": "uint256"
        }
      ],
      "name": "rewardExecutor",
      "outputs": [],
      "stateMutability": "nonpayable",
      "type": "function"
    },
    {
      "inputs": [],
      "name": "symbol",
      "outputs": [
        {
          "internalType": "string",
          "name": "",
          "type": "string"
        }
      ],
      "stateMutability": "view",
      "type": "function"
    },
    {
      "inputs": [],
      "name": "totalRewardsDistributed",
      "outputs": [
        {
          "internalType": "uint256",
          "name": "",
          "type": "uint256"
        }
      ],
      "stateMutability": "view",
      "type": "function"
    },
    {
      "inputs": [],
      "name": "totalSupply",
      "outputs": [
        {
          "internalType": "uint256",
          "name": "",
          "type": "uint256"
        }
      ],
      "stateMutability": "view",
      "type": "function"
    },
    {
      "inputs": [],
      "name": "totalTreesRewarded",
      "outputs": [
        {
          "internalType": "uint256",
          "name": "",
          "type": "uint256"
        }
      ],
      "stateMutability": "view",
      "type": "function"
    },
    {
      "inputs": [
        {
          "internalType": "address",
          "name": "to",
          "type": "address"
        },
        {
          "internalType": "uint256",
          "name": "value",
          "type": "uint256"
        }
      ],
      "name": "transfer",
      "outputs": [
        {
          "internalType": "bool",
          "name": "",
          "type": "bool"
        }
      ],
      "stateMutability": "nonpayable",
      "type": "function"
    },
    {
      "inputs": [
        {
          "internalType": "address",
          "name": "from",
          "type": "address"
        },
        {
          "internalType": "address",
          "name": "to",
          "type": "address"
        },
        {
          "internalType": "uint256",
          "name": "value",
          "type": "uint256"
        }
      ],
      "name": "transferFrom",
      "outputs": [
        {
          "internalType": "bool",
          "name": "",
          "type": "bool"
        }
      ],
      "stateMutability": "nonpayable",
      "type": "function"
    },
    {
      "inputs": [
        {
          "internalType": "address",
          "name": "newOwner",
          "type": "address"
        }
      ],
      "name": "transferOwnership",
      "outputs": [],
      "stateMutability": "nonpayable",
      "type": "function"
    }
  ],
  "transactionHash": "0xb7a62d4451e1426d86b5db0f720e7d05ff64e2f44435371956ea08dde169a17a",
  "args": [],
  "numDeployments": 1,
  "solcInputHash": "86538a475176be2c234bccf5f413633b",
  "bytecode": "0x60806040523480156200001157600080fd5b5033604051806040016040528060118152602001702a3932b2902932bbb0b932102a37b5b2b760791b8152506040518060400160405280600381526020016215149560ea1b81525081600390816200006a9190620003f7565b506004620000798282620003f7565b5050506001600160a01b038116620000ac57604051631e4fbdf760e01b8152600060048201526024015b60405180910390fd5b620000b78162000108565b506001600655620000d33369d3c21bcecceda10000006200015a565b62000102604051806060016040528060278152602001620016f06027913969d3c21bcecceda100000062000198565b62000542565b600580546001600160a01b038381166001600160a01b0319831681179093556040519116919082907f8be0079c531659141344cd1fd0a4f28419497f9722a3daafe3b4186f6b6457e090600090a35050565b6001600160a01b038216620001865760405163ec442f0560e01b815260006004820152602401620000a3565b6200019460008383620001e5565b5050565b620001948282604051602401620001b1929190620004c3565b60408051601f198184030181529190526020810180516001600160e01b03908116632d839cb360e21b179091526200031816565b6001600160a01b038316620002145780600260008282546200020891906200051a565b90915550620002889050565b6001600160a01b03831660009081526020819052604090205481811015620002695760405163391434e360e21b81526001600160a01b03851660048201526024810182905260448101839052606401620000a3565b6001600160a01b03841660009081526020819052604090209082900390555b6001600160a01b038216620002a657600280548290039055620002c5565b6001600160a01b03821660009081526020819052604090208054820190555b816001600160a01b0316836001600160a01b03167fddf252ad1be2c89b69c2b068fc378daa952ba7f163c4a11628f55a4df523b3ef836040516200030b91815260200190565b60405180910390a3505050565b6200032e816200033160201b620009a21760201c565b50565b60006a636f6e736f6c652e6c6f679050600080835160208501845afa505050565b634e487b7160e01b600052604160045260246000fd5b600181811c908216806200037d57607f821691505b6020821081036200039e57634e487b7160e01b600052602260045260246000fd5b50919050565b601f821115620003f257600081815260208120601f850160051c81016020861015620003cd5750805b601f850160051c820191505b81811015620003ee57828155600101620003d9565b5050505b505050565b81516001600160401b0381111562000413576200041362000352565b6200042b8162000424845462000368565b84620003a4565b602080601f8311600181146200046357600084156200044a5750858301515b600019600386901b1c1916600185901b178555620003ee565b600085815260208120601f198616915b82811015620004945788860151825594840194600190910190840162000473565b5085821015620004b35787850151600019600388901b60f8161c191681555b5050505050600190811b01905550565b604081526000835180604084015260005b81811015620004f35760208187018101516060868401015201620004d4565b506000606082850101526060601f19601f8301168401019150508260208301529392505050565b808201808211156200053c57634e487b7160e01b600052601160045260246000fd5b92915050565b61119e80620005526000396000f3fe608060405234801561001057600080fd5b506004361061014d5760003560e01c806370a08231116100c3578063d08766d51161007c578063d08766d5146102f0578063d55e305314610300578063dd62ed3e14610309578063dfff856814610342578063ee17254614610355578063f2fde38b1461035e57600080fd5b806370a0823114610276578063715018a61461029f5780638da5cb5b146102a757806395d89b41146102c257806397304ced146102ca578063a9059cbb146102dd57600080fd5b806323b872dd1161011557806323b872dd146101fb5780632ff2e9dc1461020e578063313ce5671461021f5780636c4e67081461022e5780636d1b229d1461024e5780636ed5ea421461026357600080fd5b806306fdde0314610152578063095ea7b314610170578063097cd9bf14610193578063110a9648146101bb57806318160ddd146101e9575b600080fd5b61015a610371565b6040516101679190610ec8565b60405180910390f35b61018361017e366004610efe565b610403565b6040519015158152602001610167565b61019b61041d565b604080519485526020850193909352918301526060820152608001610167565b6101ce6101c9366004610f28565b610455565b60408051938452602084019290925290820152606001610167565b6002545b604051908152602001610167565b610183610209366004610f43565b6104a1565b6101ed69d3c21bcecceda100000081565b60405160128152602001610167565b6101ed61023c366004610f28565b60076020526000908152604090205481565b61026161025c366004610f7f565b6104c5565b005b610261610271366004610efe565b6105c6565b6101ed610284366004610f28565b6001600160a01b031660009081526020819052604090205490565b6102616107d7565b6005546040516001600160a01b039091168152602001610167565b61015a6107eb565b6102616102d8366004610f7f565b6107fa565b6101836102eb366004610efe565b61087c565b6101ed68056bc75e2d6310000081565b6101ed60095481565b6101ed610317366004610f98565b6001600160a01b03918216600090815260016020908152604080832093909416825291909152205490565b610261610350366004610f7f565b61088a565b6101ed60085481565b61026161036c366004610f28565b610967565b60606003805461038090610fcb565b80601f01602080910402602001604051908101604052809291908181526020018280546103ac90610fcb565b80156103f95780601f106103ce576101008083540402835291602001916103f9565b820191906000526020600020905b8154815290600101906020018083116103dc57829003601f168201915b5050505050905090565b6000336104118185856109c3565b60019150505b92915050565b60008060008061042c60025490565b6008546009546104476102846005546001600160a01b031690565b935093509350935090919293565b6001600160a01b0381166000908152600760208181526040808420548483529084205492909152829182919061049468056bc75e2d631000008361101b565b9250925092509193909250565b6000336104af8582856109d0565b6104ba858585610a4f565b506001949350505050565b600081116104ee5760405162461bcd60e51b81526004016104e59061103d565b60405180910390fd5b336000908152602081905260409020548111156105445760405162461bcd60e51b8152602060048201526014602482015273496e73756666696369656e742062616c616e636560601b60448201526064016104e5565b61054e3382610aae565b60405181815233907ffd38818f5291bf0bb3a2a48aadc06ba8757865d1dabd804585338aab3009dcb69060200160405180910390a26105c36040518060400160405280601881526020017f4275726e656420257320746f6b656e732066726f6d20257300000000000000008152508233610ae8565b50565b6105ce610b2f565b6001600160a01b0382166106245760405162461bcd60e51b815260206004820152601860248201527f496e76616c6964206578656375746f722061646472657373000000000000000060448201526064016104e5565b600081116106745760405162461bcd60e51b815260206004820152601b60248201527f5472656520636f756e74206d75737420626520706f736974697665000000000060448201526064016104e5565b600061068968056bc75e2d6310000083611074565b9050806106a16102846005546001600160a01b031690565b10156106ef5760405162461bcd60e51b815260206004820152601a60248201527f496e73756666696369656e7420746f6b656e2062616c616e636500000000000060448201526064016104e5565b61070b6107046005546001600160a01b031690565b8483610a4f565b6001600160a01b0383166000908152600760205260408120805483929061073390849061108b565b92505081905550806008600082825461074c919061108b565b925050819055508160096000828254610765919061108b565b909155505060408051828152602081018490526001600160a01b038516917fe4e801442ed461792c0bdfa7f5c25444d391d67d68422437bd9005796c67cb23910160405180910390a26107d260405180606001604052806027815260200161114260279139848385610b5c565b505050565b6107df610b2f565b6107e96000610ba5565b565b60606004805461038090610fcb565b610802610b2f565b600081116108225760405162461bcd60e51b81526004016104e59061103d565b61083d6108376005546001600160a01b031690565b82610bf7565b6105c36040518060400160405280601b81526020017f4d696e746564202573206164646974696f6e616c20746f6b656e73000000000081525082610c2d565b600033610411818585610a4f565b610892610b2f565b600081116108b25760405162461bcd60e51b81526004016104e59061103d565b806108c86102846005546001600160a01b031690565b101561090d5760405162461bcd60e51b8152602060048201526014602482015273496e73756666696369656e742062616c616e636560601b60448201526064016104e5565b6109286109226005546001600160a01b031690565b82610aae565b6105c36040518060400160405280601a81526020017f456d657267656e6379206275726e656420257320746f6b656e7300000000000081525082610c2d565b61096f610b2f565b6001600160a01b03811661099957604051631e4fbdf760e01b8152600060048201526024016104e5565b6105c381610ba5565b60006a636f6e736f6c652e6c6f679050600080835160208501845afa505050565b6107d28383836001610c72565b6001600160a01b03838116600090815260016020908152604080832093861683529290522054600019811015610a495781811015610a3a57604051637dc7a0d960e11b81526001600160a01b038416600482015260248101829052604481018390526064016104e5565b610a4984848484036000610c72565b50505050565b6001600160a01b038316610a7957604051634b637e8f60e11b8152600060048201526024016104e5565b6001600160a01b038216610aa35760405163ec442f0560e01b8152600060048201526024016104e5565b6107d2838383610d47565b6001600160a01b038216610ad857604051634b637e8f60e11b8152600060048201526024016104e5565b610ae482600083610d47565b5050565b6107d2838383604051602401610b009392919061109e565b60408051601f198184030181529190526020810180516001600160e01b031663038fd88960e31b179052610e71565b6005546001600160a01b031633146107e95760405163118cdaa760e01b81523360048201526024016104e5565b610a4984848484604051602401610b7694939291906110d1565b60408051601f198184030181529190526020810180516001600160e01b0316637c7a8d8f60e11b179052610e71565b600580546001600160a01b038381166001600160a01b0319831681179093556040519116919082907f8be0079c531659141344cd1fd0a4f28419497f9722a3daafe3b4186f6b6457e090600090a35050565b6001600160a01b038216610c215760405163ec442f0560e01b8152600060048201526024016104e5565b610ae460008383610d47565b610ae48282604051602401610c43929190611109565b60408051601f198184030181529190526020810180516001600160e01b0316632d839cb360e21b179052610e71565b6001600160a01b038416610c9c5760405163e602df0560e01b8152600060048201526024016104e5565b6001600160a01b038316610cc657604051634a1406b160e11b8152600060048201526024016104e5565b6001600160a01b0380851660009081526001602090815260408083209387168352929052208290558015610a4957826001600160a01b0316846001600160a01b03167f8c5be1e5ebec7d5bd14f71427d1e84f3dd0314c0f7b2291e5b200ac8c7c3b92584604051610d3991815260200190565b60405180910390a350505050565b6001600160a01b038316610d72578060026000828254610d67919061108b565b90915550610de49050565b6001600160a01b03831660009081526020819052604090205481811015610dc55760405163391434e360e21b81526001600160a01b038516600482015260248101829052604481018390526064016104e5565b6001600160a01b03841660009081526020819052604090209082900390555b6001600160a01b038216610e0057600280548290039055610e1f565b6001600160a01b03821660009081526020819052604090208054820190555b816001600160a01b0316836001600160a01b03167fddf252ad1be2c89b69c2b068fc378daa952ba7f163c4a11628f55a4df523b3ef83604051610e6491815260200190565b60405180910390a3505050565b6105c3816109a2565b6107e961112b565b6000815180845260005b81811015610ea857602081850181015186830182015201610e8c565b506000602082860101526020601f19601f83011685010191505092915050565b602081526000610edb6020830184610e82565b9392505050565b80356001600160a01b0381168114610ef957600080fd5b919050565b60008060408385031215610f1157600080fd5b610f1a83610ee2565b946020939093013593505050565b600060208284031215610f3a57600080fd5b610edb82610ee2565b600080600060608486031215610f5857600080fd5b610f6184610ee2565b9250610f6f60208501610ee2565b9150604084013590509250925092565b600060208284031215610f9157600080fd5b5035919050565b60008060408385031215610fab57600080fd5b610fb483610ee2565b9150610fc260208401610ee2565b90509250929050565b600181811c90821680610fdf57607f821691505b602082108103610fff57634e487b7160e01b600052602260045260246000fd5b50919050565b634e487b7160e01b600052601160045260246000fd5b60008261103857634e487b7160e01b600052601260045260246000fd5b500490565b60208082526017908201527f416d6f756e74206d75737420626520706f736974697665000000000000000000604082015260600190565b808202811582820484141761041757610417611005565b8082018082111561041757610417611005565b6060815260006110b16060830186610e82565b6020830194909452506001600160a01b0391909116604090910152919050565b6080815260006110e46080830187610e82565b6001600160a01b03959095166020830152506040810192909252606090910152919050565b60408152600061111c6040830185610e82565b90508260208301529392505050565b634e487b7160e01b600052605160045260246000fdfe5265776172646564202573207769746820257320746f6b656e7320666f72202573207472656573a264697066735822122011dee7dacd341b544b71663be95fabd1dec68dd0db0e1264bffcbc6c5a7e7ecc64736f6c6343000814003354726565526577617264546f6b656e206465706c6f796564207769746820257320746f6b656e73",
  "devdoc": {
    "author": "TreeChain Team",
    "details": "ERC20       ",
    "errors": {
      "ERC20InsufficientAllowance(address,uint256,uint256)": [
        {
          "details": "Indicates a failure with the `spender`s `allowance`. Used in transfers.",
          "params": {
            "allowance": "Amount of tokens a `spender` is allowed to operate with.",
            "needed": "Minimum amount required to perform a transfer.",
            "spender": "Address that may be allowed to operate on tokens without being their owner."
          }
        }
      ],
      "ERC20InsufficientBalance(address,uint256,uint256)": [
        {
          "details": "Indicates an error related to the current `balance` of a `sender`. Used in transfers.",
          "params": {
            "balance": "Current balance for the interacting account.",
            "needed": "Minimum amount required to perform a transfer.",
            "sender": "Address whose tokens are being transferred."
          }
        }
      ],
      "ERC20InvalidApprover(address)": [
        {
          "details": "Indicates a failure with the `approver` of a token to be approved. Used in approvals.",
          "params": {
            "approver": "Address initiating an approval operation."
          }
        }
      ],
      "ERC20InvalidReceiver(address)": [
        {
          "details": "Indicates a failure with the token `receiver`. Used in transfers.",
          "params": {
            "receiver": "Address to which tokens are being transferred."
          }
        }
      ],
      "ERC20InvalidSender(address)": [
        {
          "details": "Indicates a failure with the token `sender`. Used in transfers.",
          "params": {
            "sender": "Address whose tokens are being transferred."
          }
        }
      ],
      "ERC20InvalidSpender(address)": [
        {
          "details": "Indicates a failure with the `spender` to be approved. Used in approvals.",
          "params": {
            "spender": "Address that may be allowed to operate on tokens without being their owner."
          }
        }
      ],
      "OwnableInvalidOwner(address)": [
        {
          "details": "The owner is not a valid owner account. (eg. `address(0)`)"
        }
      ],
      "OwnableUnauthorizedAccount(address)": [
        {
          "details": "The caller account is not authorized to perform an operation."
        }
      ],
      "ReentrancyGuardReentrantCall()": [
        {
          "details": "Unauthorized reentrant call."
        }
      ]
    },
    "events": {
      "Approval(address,address,uint256)": {
        "details": "Emitted when the allowance of a `spender` for an `owner` is set by a call to {approve}. `value` is the new allowance."
      },
      "Transfer(address,address,uint256)": {
        "details": "Emitted when `value` tokens are moved from one account (`from`) to another (`to`). Note that `value` may be zero."
      }
    },
    "kind": "dev",
    "methods": {
      "allowance(address,address)": {
        "details": "Returns the remaining number of tokens that `spender` will be allowed to spend on behalf of `owner` through {transferFrom}. This is zero by default. This value changes when {approve} or {transferFrom} are called."
      },
      "approve(address,uint256)": {
        "details": "See {IERC20-approve}. NOTE: If `value` is the maximum `uint256`, the allowance is not updated on `transferFrom`. This is semantically equivalent to an infinite approval. Requirements: - `spender` cannot be the zero address."
      },
      "balanceOf(address)": {
        "details": "Returns the value of tokens owned by `account`."
      },
      "burnTokens(uint256)": {
        "details": "  (    )",
        "params": {
          "amount": "   "
        }
      },
      "decimals()": {
        "details": "Returns the number of decimals used to get its user representation. For example, if `decimals` equals `2`, a balance of `505` tokens should be displayed to a user as `5.05` (`505 / 10 ** 2`). Tokens usually opt for a value of 18, imitating the relationship between Ether and Wei. This is the default value returned by this function, unless it's overridden. NOTE: This information is only used for _display_ purposes: it in no way affects any of the arithmetic of the contract, including {IERC20-balanceOf} and {IERC20-transfer}."
      },
      "emergencyBurn(uint256)": {
        "details": "   ( )",
        "params": {
          "amount": "   "
        }
      },
      "getExecutorStats(address)": {
        "details": "  ",
        "params": {
          "executor": " "
        }
      },
      "getTokenStats()": {
        "details": "   "
      },
      "mintTokens(uint256)": {
        "details": "   ( )",
        "params": {
          "amount": "   "
        }
      },
      "name()": {
        "details": "Returns the name of the token."
      },
      "owner()": {
        "details": "Returns the address of the current owner."
      },
      "renounceOwnership()": {
        "details": "Leaves the contract without owner. It will not be possible to call `onlyOwner` functions. Can only be called by the current owner. NOTE: Renouncing ownership will leave the contract without an owner, thereby disabling any functionality that is only available to the owner."
      },
      "rewardExecutor(address,uint256)": {
        "details": "   ( )",
        "params": {
          "executor": " ",
          "treeCount": "  "
        }
      },
      "symbol()": {
        "details": "Returns the symbol of the token, usually a shorter version of the name."
      },
      "totalSupply()": {
        "details": "Returns the value of tokens in existence."
      },
      "transfer(address,uint256)": {
        "details": "See {IERC20-transfer}. Requirements: - `to` cannot be the zero address. - the caller must have a balance of at least `value`."
      },
      "transferFrom(address,address,uint256)": {
        "details": "See {IERC20-transferFrom}. Skips emitting an {Approval} event indicating an allowance update. This is not required by the ERC. See {xref-ERC20-_approve-address-address-uint256-bool-}[_approve]. NOTE: Does not update the allowance if the current allowance is the maximum `uint256`. Requirements: - `from` and `to` cannot be the zero address. - `from` must have a balance of at least `value`. - the caller must have allowance for ``from``'s tokens of at least `value`."
      },
      "transferOwnership(address)": {
        "details": "Transfers ownership of the contract to a new account (`newOwner`). Can only be called by the current owner."
      }
    },
    "title": "TreeRewardToken",
    "version": 1
  },
  "userdoc": {
    "kind": "user",
    "methods": {},
    "version": 1
  },
  "storageLayout": {
    "storage": [
      {
        "astId": 307,
        "contract": "contracts/TreeRewardToken.sol:TreeRewardToken",
        "label": "_balances",
        "offset": 0,
        "slot": "0",
        "type": "t_mapping(t_address,t_uint256)"
      },
      {
        "astId": 313,
        "contract": "contracts/TreeRewardToken.sol:TreeRewardToken",
        "label": "_allowances",
        "offset": 0,
        "slot": "1",
        "type": "t_mapping(t_address,t_mapping(t_address,t_uint256))"
      },
      {
        "astId": 315,
        "contract": "contracts/TreeRewardToken.sol:TreeRewardToken",
        "label": "_totalSupply",
        "offset": 0,
        "slot": "2",
        "type": "t_uint256"
      },
      {
        "astId": 317,
        "contract": "contracts/TreeRewardToken.sol:TreeRewardToken",
        "label": "_name",
        "offset": 0,
        "slot": "3",
        "type": "t_string_storage"
      },
      {
        "astId": 319,
        "contract": "contracts/TreeRewardToken.sol:TreeRewardToken",
        "label": "_symbol",
        "offset": 0,
        "slot": "4",
        "type": "t_string_storage"
      },
      {
        "astId": 8,
        "contract": "contracts/TreeRewardToken.sol:TreeRewardToken",
        "label": "_owner",
        "offset": 0,
        "slot": "5",
        "type": "t_address"
      },
      {
        "astId": 2193,
        "contract": "contracts/TreeRewardToken.sol:TreeRewardToken",
        "label": "_status",
        "offset": 0,
        "slot": "6",
        "type": "t_uint256"
      },
      {
        "astId": 8178,
        "contract": "contracts/TreeRewardToken.sol:TreeRewardToken",
        "label": "executorRewards",
        "offset": 0,
        "slot": "7",
        "type": "t_mapping(t_address,t_uint256)"
      },
      {
        "astId": 8180,
        "contract": "contracts/TreeRewardToken.sol:TreeRewardToken",
        "label": "totalRewardsDistributed",
        "offset": 0,
        "slot": "8",
        "type": "t_uint256"
      },
      {
        "astId": 8182,
        "contract": "contracts/TreeRewardToken.sol:TreeRewardToken",
        "label": "totalTreesRewarded",
        "offset": 0,
        "slot": "9",
        "type": "t_uint256"
      }
    ],
    "types": {
      "t_address": {
        "encoding": "inplace",
        "label": "address",
        "numberOfBytes": "20"
      },
      "t_mapping(t_address,t_mapping(t_address,t_uint256))": {
        "encoding": "mapping",
        "key": "t_address",
        "label": "mapping(address => mapping(address => uint256))",
        "numberOfBytes": "32",
        "value": "t_mapping(t_address,t_uint256)"
      },
      "t_mapping(t_address,t_uint256)": {
        "encoding": "mapping",
        "key": "t_address",
        "label": "mapping(address => uint256)",
        "numberOfBytes": "32",
        "value": "t_uint256"
      },
      "t_string_storage": {
        "encoding": "bytes",
        "label": "string",
        "numberOfBytes": "32"
      },
      "t_uint256": {
        "encoding": "inplace",
        "label": "uint256",
        "numberOfBytes": "32"
      }
    }
  }
}